:1000000012C02CC02BC02AC029C028C027C026C0BF
:1000100025C024C023C022C021C020C01FC01EC0D4
:100020001DC01CC01BC011241FBECFE5D4E0DEBF25
:10003000CDBF10E0A0E6B0E0E0E2F1E002C0059044
:100040000D92A437B107D9F720E0A4E7B0E001C0D2
:100050001D92A637B207E1F730D060C0D1CFDC01E6
:1000600040E050E020C098B39D7F98BBFD01E40FB5
:10007000F51F8081882324F488B3816088BB03C086
:1000800098B39E7F98BB9081990F908398B39260AC
:1000900098BB2F5F3F4F02C020E030E02830310591
:1000A00014F34F5F5F4F46175707B4F388B38B7F46
:1000B00088BB88B3846088BB08958FEF87BB00E05E
:1000C00010E028C0F801EE0FFF1FE05AFF4F8081BB
:1000D000A4E7B0E08C93FE01EE0FFF1FE05AFF4F44
:1000E000808111968C93119762E070E0CD01B7DFAB
:1000F0002FEB84ED91E0215080409040E1F700C06B
:100100000000219602C0C0E0D0E0CA30D105D4F290
:100110000F5F1F4F0A301105B4F3D1CFF894FFCF12
:10012000BD0090003B00BA009600AE00AF00980002
:04013000BF00BE004E
:00000001FF
